{
  "_format": "hh-sol-artifact-1",
  "contractName": "Staking",
  "sourceName": "contracts/Staking.sol",
  "abi": [
    {
      "inputs": [
        {
          "internalType": "address",
          "name": "_token",
          "type": "address"
        }
      ],
      "stateMutability": "nonpayable",
      "type": "constructor"
    },
    {
      "inputs": [
        {
          "internalType": "uint256",
          "name": "",
          "type": "uint256"
        }
      ],
      "name": "FixedPools",
      "outputs": [
        {
          "internalType": "string",
          "name": "name",
          "type": "string"
        },
        {
          "internalType": "uint256",
          "name": "tokenStaked",
          "type": "uint256"
        },
        {
          "internalType": "uint256",
          "name": "stakeTime",
          "type": "uint256"
        },
        {
          "internalType": "uint256",
          "name": "reward",
          "type": "uint256"
        }
      ],
      "stateMutability": "view",
      "type": "function"
    },
    {
      "inputs": [
        {
          "internalType": "uint256",
          "name": "",
          "type": "uint256"
        }
      ],
      "name": "FlexiblePools",
      "outputs": [
        {
          "internalType": "string",
          "name": "name",
          "type": "string"
        },
        {
          "internalType": "uint256",
          "name": "tokenStaked",
          "type": "uint256"
        },
        {
          "internalType": "uint256",
          "name": "rewardPercent",
          "type": "uint256"
        },
        {
          "internalType": "uint256",
          "name": "stakeTime",
          "type": "uint256"
        },
        {
          "internalType": "uint256",
          "name": "levelUpReward",
          "type": "uint256"
        }
      ],
      "stateMutability": "view",
      "type": "function"
    },
    {
      "inputs": [],
      "name": "balance",
      "outputs": [
        {
          "internalType": "uint256",
          "name": "",
          "type": "uint256"
        }
      ],
      "stateMutability": "view",
      "type": "function"
    },
    {
      "inputs": [
        {
          "internalType": "uint256",
          "name": "_poolId",
          "type": "uint256"
        }
      ],
      "name": "claimFixStake",
      "outputs": [],
      "stateMutability": "nonpayable",
      "type": "function"
    },
    {
      "inputs": [
        {
          "internalType": "uint256",
          "name": "_poolId",
          "type": "uint256"
        }
      ],
      "name": "claimFlexReward",
      "outputs": [],
      "stateMutability": "nonpayable",
      "type": "function"
    },
    {
      "inputs": [
        {
          "internalType": "uint256",
          "name": "_poolId",
          "type": "uint256"
        }
      ],
      "name": "fixStake",
      "outputs": [],
      "stateMutability": "nonpayable",
      "type": "function"
    },
    {
      "inputs": [
        {
          "internalType": "uint256",
          "name": "_poolId",
          "type": "uint256"
        }
      ],
      "name": "flexStake",
      "outputs": [],
      "stateMutability": "nonpayable",
      "type": "function"
    },
    {
      "inputs": [
        {
          "internalType": "address",
          "name": "owner",
          "type": "address"
        },
        {
          "internalType": "uint256",
          "name": "_poolId",
          "type": "uint256"
        }
      ],
      "name": "getFixLen",
      "outputs": [
        {
          "internalType": "uint256",
          "name": "len",
          "type": "uint256"
        }
      ],
      "stateMutability": "view",
      "type": "function"
    },
    {
      "inputs": [
        {
          "internalType": "address",
          "name": "owner",
          "type": "address"
        },
        {
          "internalType": "uint256",
          "name": "_poolId",
          "type": "uint256"
        }
      ],
      "name": "getFlexLen",
      "outputs": [
        {
          "internalType": "uint256",
          "name": "",
          "type": "uint256"
        }
      ],
      "stateMutability": "view",
      "type": "function"
    },
    {
      "inputs": [
        {
          "components": [
            {
              "internalType": "string",
              "name": "name",
              "type": "string"
            },
            {
              "internalType": "uint256",
              "name": "tokenStaked",
              "type": "uint256"
            },
            {
              "internalType": "uint256",
              "name": "rewardPercent",
              "type": "uint256"
            },
            {
              "internalType": "uint256",
              "name": "stakeTime",
              "type": "uint256"
            },
            {
              "internalType": "uint256",
              "name": "levelUpReward",
              "type": "uint256"
            }
          ],
          "internalType": "struct Staking.FlexiblePool[]",
          "name": "_flex",
          "type": "tuple[]"
        }
      ],
      "name": "initalizeFlexiblePools",
      "outputs": [],
      "stateMutability": "nonpayable",
      "type": "function"
    },
    {
      "inputs": [
        {
          "components": [
            {
              "internalType": "string",
              "name": "name",
              "type": "string"
            },
            {
              "internalType": "uint256",
              "name": "tokenStaked",
              "type": "uint256"
            },
            {
              "internalType": "uint256",
              "name": "stakeTime",
              "type": "uint256"
            },
            {
              "internalType": "uint256",
              "name": "reward",
              "type": "uint256"
            }
          ],
          "internalType": "struct Staking.FixedPool[]",
          "name": "_fixed",
          "type": "tuple[]"
        }
      ],
      "name": "initializeFixedPools",
      "outputs": [],
      "stateMutability": "nonpayable",
      "type": "function"
    }
  ],
  "bytecode": "0x60a06040523480156200001157600080fd5b506040516200285d3803806200285d83398181016040528101906200003791906200011c565b3373ffffffffffffffffffffffffffffffffffffffff1660808173ffffffffffffffffffffffffffffffffffffffff1681525050806000806101000a81548173ffffffffffffffffffffffffffffffffffffffff021916908373ffffffffffffffffffffffffffffffffffffffff160217905550506200014e565b600080fd5b600073ffffffffffffffffffffffffffffffffffffffff82169050919050565b6000620000e482620000b7565b9050919050565b620000f681620000d7565b81146200010257600080fd5b50565b6000815190506200011681620000eb565b92915050565b600060208284031215620001355762000134620000b2565b5b6000620001458482850162000105565b91505092915050565b6080516126ec620001716000396000818161023d015261079901526126ec6000f3fe608060405234801561001057600080fd5b50600436106100a95760003560e01c8063e64a144811610071578063e64a144814610168578063e7422bb014610184578063e986b9b1146101a0578063eb90a543146101bc578063f1603651146101ef578063fd0608891461021f576100a9565b806367136baa146100ae5780636e9f1f88146100ca57806375d4bf5a146100fa578063b69ef8a814610116578063e6259cc714610134575b600080fd5b6100c860048036038101906100c39190611aa8565b61023b565b005b6100e460048036038101906100df9190611b4f565b610357565b6040516100f19190611b9e565b60405180910390f35b610114600480360381019061010f9190611bb9565b6103b5565b005b61011e610637565b60405161012b9190611b9e565b60405180910390f35b61014e60048036038101906101499190611bb9565b6106d9565b60405161015f959493929190611c65565b60405180910390f35b610182600480360381019061017d9190611e48565b610797565b005b61019e60048036038101906101999190611bb9565b6108bd565b005b6101ba60048036038101906101b59190611bb9565b610c68565b005b6101d660048036038101906101d19190611bb9565b610ed0565b6040516101e69493929190611e91565b60405180910390f35b61020960048036038101906102049190611b4f565b610f88565b6040516102169190611b9e565b60405180910390f35b61023960048036038101906102349190611bb9565b610fe6565b005b7f000000000000000000000000000000000000000000000000000000000000000073ffffffffffffffffffffffffffffffffffffffff163373ffffffffffffffffffffffffffffffffffffffff16146102c9576040517f08c379a00000000000000000000000000000000000000000000000000000000081526004016102c090611f29565b60405180910390fd5b60005b60038110156103535760008282815181106102ea576102e9611f49565b5b602002602001015190508060016000848152602001908152602001600020600082015181600001908161031d9190612184565b5060208201518160010155604082015181600201556060820151816003015590505050808061034b90612285565b9150506102cc565b5050565b6000600360008473ffffffffffffffffffffffffffffffffffffffff1673ffffffffffffffffffffffffffffffffffffffff168152602001908152602001600020600083815260200190815260200160002080549050905092915050565b600060149054906101000a900460ff1615610405576040517f08c379a00000000000000000000000000000000000000000000000000000000081526004016103fc90612319565b60405180910390fd5b6001600060146101000a81548160ff021916908315150217905550600061042c3383610357565b905060008111610471576040517f08c379a000000000000000000000000000000000000000000000000000000000815260040161046890612385565b60405180910390fd5b600080600360003373ffffffffffffffffffffffffffffffffffffffff1673ffffffffffffffffffffffffffffffffffffffff168152602001908152602001600020600085815260200190815260200160002082815481106104d6576104d5611f49565b5b9060005260206000200154905080421180156104f25750600081115b610531576040517f08c379a0000000000000000000000000000000000000000000000000000000008152600401610528906123f1565b60405180910390fd5b60006001600086815260200190815260200160002060010154600160008781526020019081526020016000206003015461056b9190612411565b905060008054906101000a900473ffffffffffffffffffffffffffffffffffffffff1673ffffffffffffffffffffffffffffffffffffffff1663a9059cbb33836040518363ffffffff1660e01b81526004016105c8929190612454565b6020604051808303816000875af11580156105e7573d6000803e3d6000fd5b505050506040513d601f19601f8201168201806040525081019061060b91906124b5565b5061061685846111e1565b5050505060008060146101000a81548160ff02191690831515021790555050565b60008060009054906101000a900473ffffffffffffffffffffffffffffffffffffffff1673ffffffffffffffffffffffffffffffffffffffff166370a08231306040518263ffffffff1660e01b815260040161069391906124e2565b602060405180830381865afa1580156106b0573d6000803e3d6000fd5b505050506040513d601f19601f820116820180604052508101906106d49190612512565b905090565b60026020528060005260406000206000915090508060000180546106fc90611fa7565b80601f016020809104026020016040519081016040528092919081815260200182805461072890611fa7565b80156107755780601f1061074a57610100808354040283529160200191610775565b820191906000526020600020905b81548152906001019060200180831161075857829003601f168201915b5050505050908060010154908060020154908060030154908060040154905085565b7f000000000000000000000000000000000000000000000000000000000000000073ffffffffffffffffffffffffffffffffffffffff163373ffffffffffffffffffffffffffffffffffffffff1614610825576040517f08c379a000000000000000000000000000000000000000000000000000000000815260040161081c90611f29565b60405180910390fd5b60005b60038110156108b957600082828151811061084657610845611f49565b5b60200260200101519050806002600084815260200190815260200160002060008201518160000190816108799190612184565b50602082015181600101556040820151816002015560608201518160030155608082015181600401559050505080806108b190612285565b915050610828565b5050565b600060149054906101000a900460ff161561090d576040517f08c379a000000000000000000000000000000000000000000000000000000000815260040161090490612319565b60405180910390fd5b6001600060146101000a81548160ff02191690831515021790555060006109343383610f88565b905060008111610979576040517f08c379a000000000000000000000000000000000000000000000000000000000815260040161097090612385565b60405180910390fd5b600080600460003373ffffffffffffffffffffffffffffffffffffffff1673ffffffffffffffffffffffffffffffffffffffff168152602001908152602001600020600085815260200190815260200160002082815481106109de576109dd611f49565b5b90600052602060002090600402016001015490506109fb8161145a565b600460003373ffffffffffffffffffffffffffffffffffffffff1673ffffffffffffffffffffffffffffffffffffffff16815260200190815260200160002060008681526020019081526020016000208381548110610a5d57610a5c611f49565b5b9060005260206000209060040201600301819055508042118015610a815750600081115b610ac0576040517f08c379a0000000000000000000000000000000000000000000000000000000008152600401610ab7906123f1565b60405180910390fd5b600060026000868152602001908152602001600020600101546002600087815260200190815260200160002060020154610afa9190612411565b9050600460003373ffffffffffffffffffffffffffffffffffffffff1673ffffffffffffffffffffffffffffffffffffffff16815260200190815260200160002060008681526020019081526020016000208381548110610b5e57610b5d611f49565b5b9060005260206000209060040201600301546002600087815260200190815260200160002060040154610b91919061253f565b81610b9c9190612411565b905060008054906101000a900473ffffffffffffffffffffffffffffffffffffffff1673ffffffffffffffffffffffffffffffffffffffff1663a9059cbb33836040518363ffffffff1660e01b8152600401610bf9929190612454565b6020604051808303816000875af1158015610c18573d6000803e3d6000fd5b505050506040513d601f19601f82011682018060405250810190610c3c91906124b5565b50610c47858461149b565b5050505060008060146101000a81548160ff02191690831515021790555050565b600060149054906101000a900460ff1615610cb8576040517f08c379a0000000000000000000000000000000000000000000000000000000008152600401610caf90612319565b60405180910390fd5b6001600060146101000a81548160ff02191690831515021790555060008110158015610ce45750600381105b610cf157610cf0612581565b5b60008054906101000a900473ffffffffffffffffffffffffffffffffffffffff1673ffffffffffffffffffffffffffffffffffffffff166323b872dd333060026000868152602001908152602001600020600101546040518463ffffffff1660e01b8152600401610d64939291906125b0565b6020604051808303816000875af1158015610d83573d6000803e3d6000fd5b505050506040513d601f19601f82011682018060405250810190610da791906124b5565b506000600260008381526020019081526020016000206003015442610dcc9190612411565b90506000604051806080016040528042815260200183815260200160001515815260200160018152509050600460003373ffffffffffffffffffffffffffffffffffffffff1673ffffffffffffffffffffffffffffffffffffffff1681526020019081526020016000206000848152602001908152602001600020819080600181540180825580915050600190039060005260206000209060040201600090919091909150600082015181600001556020820151816001015560408201518160020160006101000a81548160ff021916908315150217905550606082015181600301555050505060008060146101000a81548160ff02191690831515021790555050565b6001602052806000526040600020600091509050806000018054610ef390611fa7565b80601f0160208091040260200160405190810160405280929190818152602001828054610f1f90611fa7565b8015610f6c5780601f10610f4157610100808354040283529160200191610f6c565b820191906000526020600020905b815481529060010190602001808311610f4f57829003601f168201915b5050505050908060010154908060020154908060030154905084565b6000600460008473ffffffffffffffffffffffffffffffffffffffff1673ffffffffffffffffffffffffffffffffffffffff168152602001908152602001600020600083815260200190815260200160002080549050905092915050565b600060149054906101000a900460ff1615611036576040517f08c379a000000000000000000000000000000000000000000000000000000000815260040161102d90612319565b60405180910390fd5b6001600060146101000a81548160ff021916908315150217905550600081101580156110625750600381105b61106f5761106e612581565b5b60008054906101000a900473ffffffffffffffffffffffffffffffffffffffff1673ffffffffffffffffffffffffffffffffffffffff166323b872dd333060016000868152602001908152602001600020600101546040518463ffffffff1660e01b81526004016110e2939291906125b0565b6020604051808303816000875af1158015611101573d6000803e3d6000fd5b505050506040513d601f19601f8201168201806040525081019061112591906124b5565b50600060016000838152602001908152602001600020600201544261114a9190612411565b9050600360003373ffffffffffffffffffffffffffffffffffffffff1673ffffffffffffffffffffffffffffffffffffffff16815260200190815260200160002060008381526020019081526020016000208190806001815401808255809150506001900390600052602060002001600090919091909150555060008060146101000a81548160ff02191690831515021790555050565b600360003373ffffffffffffffffffffffffffffffffffffffff1673ffffffffffffffffffffffffffffffffffffffff1681526020019081526020016000206000838152602001908152602001600020805490508110611276576040517f08c379a000000000000000000000000000000000000000000000000000000000815260040161126d90612633565b60405180910390fd5b60008190505b6001600360003373ffffffffffffffffffffffffffffffffffffffff1673ffffffffffffffffffffffffffffffffffffffff1681526020019081526020016000206000858152602001908152602001600020805490506112dc9190612653565b8110156113df57600360003373ffffffffffffffffffffffffffffffffffffffff1673ffffffffffffffffffffffffffffffffffffffff16815260200190815260200160002060008481526020019081526020016000206001826113409190612411565b8154811061135157611350611f49565b5b9060005260206000200154600360003373ffffffffffffffffffffffffffffffffffffffff1673ffffffffffffffffffffffffffffffffffffffff168152602001908152602001600020600085815260200190815260200160002082815481106113be576113bd611f49565b5b906000526020600020018190555080806113d790612285565b91505061127c565b50600360003373ffffffffffffffffffffffffffffffffffffffff1673ffffffffffffffffffffffffffffffffffffffff16815260200190815260200160002060008381526020019081526020016000208054806114405761143f612687565b5b600190038181906000526020600020016000905590555050565b6000600282611469919061253f565b42101580156114835750600382611480919061253f565b42105b156114915760029050611496565b600390505b919050565b600460003373ffffffffffffffffffffffffffffffffffffffff1673ffffffffffffffffffffffffffffffffffffffff1681526020019081526020016000206000838152602001908152602001600020805490508110611530576040517f08c379a000000000000000000000000000000000000000000000000000000000815260040161152790612633565b60405180910390fd5b60008190505b6001600460003373ffffffffffffffffffffffffffffffffffffffff1673ffffffffffffffffffffffffffffffffffffffff1681526020019081526020016000206000858152602001908152602001600020805490506115969190612653565b8110156116ea57600460003373ffffffffffffffffffffffffffffffffffffffff1673ffffffffffffffffffffffffffffffffffffffff16815260200190815260200160002060008481526020019081526020016000206001826115fa9190612411565b8154811061160b5761160a611f49565b5b9060005260206000209060040201600460003373ffffffffffffffffffffffffffffffffffffffff1673ffffffffffffffffffffffffffffffffffffffff1681526020019081526020016000206000858152602001908152602001600020828154811061167b5761167a611f49565b5b906000526020600020906004020160008201548160000155600182015481600101556002820160009054906101000a900460ff168160020160006101000a81548160ff0219169083151502179055506003820154816003015590505080806116e290612285565b915050611536565b50600460003373ffffffffffffffffffffffffffffffffffffffff1673ffffffffffffffffffffffffffffffffffffffff168152602001908152602001600020600083815260200190815260200160002080548061174b5761174a612687565b5b600190038181906000526020600020906004020160008082016000905560018201600090556002820160006101000a81549060ff02191690556003820160009055505090555050565b6000604051905090565b600080fd5b600080fd5b600080fd5b6000601f19601f8301169050919050565b7f4e487b7100000000000000000000000000000000000000000000000000000000600052604160045260246000fd5b6117f6826117ad565b810181811067ffffffffffffffff82111715611815576118146117be565b5b80604052505050565b6000611828611794565b905061183482826117ed565b919050565b600067ffffffffffffffff821115611854576118536117be565b5b602082029050602081019050919050565b600080fd5b600080fd5b600080fd5b600080fd5b600067ffffffffffffffff821115611894576118936117be565b5b61189d826117ad565b9050602081019050919050565b82818337600083830152505050565b60006118cc6118c784611879565b61181e565b9050828152602081018484840111156118e8576118e7611874565b5b6118f38482856118aa565b509392505050565b600082601f8301126119105761190f6117a8565b5b81356119208482602086016118b9565b91505092915050565b6000819050919050565b61193c81611929565b811461194757600080fd5b50565b60008135905061195981611933565b92915050565b6000608082840312156119755761197461186a565b5b61197f608061181e565b9050600082013567ffffffffffffffff81111561199f5761199e61186f565b5b6119ab848285016118fb565b60008301525060206119bf8482850161194a565b60208301525060406119d38482850161194a565b60408301525060606119e78482850161194a565b60608301525092915050565b6000611a06611a0184611839565b61181e565b90508083825260208201905060208402830185811115611a2957611a28611865565b5b835b81811015611a7057803567ffffffffffffffff811115611a4e57611a4d6117a8565b5b808601611a5b898261195f565b85526020850194505050602081019050611a2b565b5050509392505050565b600082601f830112611a8f57611a8e6117a8565b5b8135611a9f8482602086016119f3565b91505092915050565b600060208284031215611abe57611abd61179e565b5b600082013567ffffffffffffffff811115611adc57611adb6117a3565b5b611ae884828501611a7a565b91505092915050565b600073ffffffffffffffffffffffffffffffffffffffff82169050919050565b6000611b1c82611af1565b9050919050565b611b2c81611b11565b8114611b3757600080fd5b50565b600081359050611b4981611b23565b92915050565b60008060408385031215611b6657611b6561179e565b5b6000611b7485828601611b3a565b9250506020611b858582860161194a565b9150509250929050565b611b9881611929565b82525050565b6000602082019050611bb36000830184611b8f565b92915050565b600060208284031215611bcf57611bce61179e565b5b6000611bdd8482850161194a565b91505092915050565b600081519050919050565b600082825260208201905092915050565b60005b83811015611c20578082015181840152602081019050611c05565b60008484015250505050565b6000611c3782611be6565b611c418185611bf1565b9350611c51818560208601611c02565b611c5a816117ad565b840191505092915050565b600060a0820190508181036000830152611c7f8188611c2c565b9050611c8e6020830187611b8f565b611c9b6040830186611b8f565b611ca86060830185611b8f565b611cb56080830184611b8f565b9695505050505050565b600067ffffffffffffffff821115611cda57611cd96117be565b5b602082029050602081019050919050565b600060a08284031215611d0157611d0061186a565b5b611d0b60a061181e565b9050600082013567ffffffffffffffff811115611d2b57611d2a61186f565b5b611d37848285016118fb565b6000830152506020611d4b8482850161194a565b6020830152506040611d5f8482850161194a565b6040830152506060611d738482850161194a565b6060830152506080611d878482850161194a565b60808301525092915050565b6000611da6611da184611cbf565b61181e565b90508083825260208201905060208402830185811115611dc957611dc8611865565b5b835b81811015611e1057803567ffffffffffffffff811115611dee57611ded6117a8565b5b808601611dfb8982611ceb565b85526020850194505050602081019050611dcb565b5050509392505050565b600082601f830112611e2f57611e2e6117a8565b5b8135611e3f848260208601611d93565b91505092915050565b600060208284031215611e5e57611e5d61179e565b5b600082013567ffffffffffffffff811115611e7c57611e7b6117a3565b5b611e8884828501611e1a565b91505092915050565b60006080820190508181036000830152611eab8187611c2c565b9050611eba6020830186611b8f565b611ec76040830185611b8f565b611ed46060830184611b8f565b95945050505050565b7f4e6f74207468652041646d696e21000000000000000000000000000000000000600082015250565b6000611f13600e83611bf1565b9150611f1e82611edd565b602082019050919050565b60006020820190508181036000830152611f4281611f06565b9050919050565b7f4e487b7100000000000000000000000000000000000000000000000000000000600052603260045260246000fd5b7f4e487b7100000000000000000000000000000000000000000000000000000000600052602260045260246000fd5b60006002820490506001821680611fbf57607f821691505b602082108103611fd257611fd1611f78565b5b50919050565b60008190508160005260206000209050919050565b60006020601f8301049050919050565b600082821b905092915050565b60006008830261203a7fffffffffffffffffffffffffffffffffffffffffffffffffffffffffffffffff82611ffd565b6120448683611ffd565b95508019841693508086168417925050509392505050565b6000819050919050565b600061208161207c61207784611929565b61205c565b611929565b9050919050565b6000819050919050565b61209b83612066565b6120af6120a782612088565b84845461200a565b825550505050565b600090565b6120c46120b7565b6120cf818484612092565b505050565b5b818110156120f3576120e86000826120bc565b6001810190506120d5565b5050565b601f8211156121385761210981611fd8565b61211284611fed565b81016020851015612121578190505b61213561212d85611fed565b8301826120d4565b50505b505050565b600082821c905092915050565b600061215b6000198460080261213d565b1980831691505092915050565b6000612174838361214a565b9150826002028217905092915050565b61218d82611be6565b67ffffffffffffffff8111156121a6576121a56117be565b5b6121b08254611fa7565b6121bb8282856120f7565b600060209050601f8311600181146121ee57600084156121dc578287015190505b6121e68582612168565b86555061224e565b601f1984166121fc86611fd8565b60005b82811015612224578489015182556001820191506020850194506020810190506121ff565b86831015612241578489015161223d601f89168261214a565b8355505b6001600288020188555050505b505050505050565b7f4e487b7100000000000000000000000000000000000000000000000000000000600052601160045260246000fd5b600061229082611929565b91507fffffffffffffffffffffffffffffffffffffffffffffffffffffffffffffffff82036122c2576122c1612256565b5b600182019050919050565b7f4e6f2072652d656e7472616e6379000000000000000000000000000000000000600082015250565b6000612303600e83611bf1565b915061230e826122cd565b602082019050919050565b60006020820190508181036000830152612332816122f6565b9050919050565b7f4e6f74207374616b656420696e207468697320706f6f6c210000000000000000600082015250565b600061236f601883611bf1565b915061237a82612339565b602082019050919050565b6000602082019050818103600083015261239e81612362565b9050919050565b7f5374616b696e672074696d65206e6f7420636f6d706c65746564210000000000600082015250565b60006123db601b83611bf1565b91506123e6826123a5565b602082019050919050565b6000602082019050818103600083015261240a816123ce565b9050919050565b600061241c82611929565b915061242783611929565b925082820190508082111561243f5761243e612256565b5b92915050565b61244e81611b11565b82525050565b60006040820190506124696000830185612445565b6124766020830184611b8f565b9392505050565b60008115159050919050565b6124928161247d565b811461249d57600080fd5b50565b6000815190506124af81612489565b92915050565b6000602082840312156124cb576124ca61179e565b5b60006124d9848285016124a0565b91505092915050565b60006020820190506124f76000830184612445565b92915050565b60008151905061250c81611933565b92915050565b6000602082840312156125285761252761179e565b5b6000612536848285016124fd565b91505092915050565b600061254a82611929565b915061255583611929565b925082820261256381611929565b9150828204841483151761257a57612579612256565b5b5092915050565b7f4e487b7100000000000000000000000000000000000000000000000000000000600052600160045260246000fd5b60006060820190506125c56000830186612445565b6125d26020830185612445565b6125df6040830184611b8f565b949350505050565b7f496e646578206f7574206f6620626f756e642100000000000000000000000000600082015250565b600061261d601383611bf1565b9150612628826125e7565b602082019050919050565b6000602082019050818103600083015261264c81612610565b9050919050565b600061265e82611929565b915061266983611929565b925082820390508181111561268157612680612256565b5b92915050565b7f4e487b7100000000000000000000000000000000000000000000000000000000600052603160045260246000fdfea264697066735822122029a855d559016122169f33b4c0bb97a007a64fea171b0e0a1f009eb55b70179064736f6c63430008110033",
  "linkReferences": {},
  "deployedLinkReferences": {}
}